:100000000C9471050C94041D0C94311D0C949905ED
:100010000C9499050C9499050C9499050C949905E8
:100020000C9499050C9499050C9499050C949905D8
:100030000C9499050C9499050C9499050C949905C8
:100040000C945E1D0C9499050C94FB200C942D21AE
:100050000C9499050C9499050C9499050C949905A8
:100060000C94B71B0C949905084AD73B3BCE016E04
:1000700084BCBFFDC12F3D6C74319ABD56833DDAFF
:100080003D00C77F11BED9E4BB4C3E916BAAAABE0E
:10009000000000803F006932635265616420666140
:1000A000696C65643A20006932635772697465202F
:1000B0006661696C65643A20002C002C00562C00A7
:1000C0000000000000000000000000000000000030
:1000D0000000000000000000000000000000000020
:1000E000000000000000000000000180000000008F
:1000F0000000000000000000000001C0000000003F
:100100000000000000000000000001C0000000002E
:100110000000000000000000000001E000000000FE
:100120000000000000000000000003E000000000EC
:10013000000000000000000000000370000000004C
:10014000000000000000000000000330000000007C
:100150000000000000000000000007300000000068
:100160000000000000000000000007180000000070
:100170000000000000000000000006180000000061
:100180000000000000000000000006180000000051
:100190000000000000000000000006180000000041
:1001A0000000000000000000003006180000000001
:1001B000000000000000000000E007380000000020
:1001C000000000000000000001C003F0000000007B
:1001D0000000000000000000070000000000000018
:1001E00000000000000000000E0000000000000001
:1001F00000000000007C00001C0000000000000067
:1002000000000000001F80007800000000000000D7
:10021000000000000003E000E0000000000000001B
:10022000000000000000F801C00000000000000015
:100230000000000000003C00000000000000000082
:1002400000000000000000000000000000000000AE
:100250000000000000000000003FC000000000009F
:1002600000000000000000000060700000000000BE
:10027000000000000007F00000800E0000000000F9
:100280000000000000380E000380030000000000A2
:100290000000000000E00380030000C00000000038
:1002A00000000000018000E0060FC06000000000B8
:1002B00000000000030000300C107020000000005F
:1002C00000000000060FE0181820083000000000B1
:1002D000000000000C3FFC08186004100000000043
:1002E0000000000018600F0C3840061000000000ED
:1002F0000000000018C0018430C3020800000000A4
:1003000000000000308000C670C303080000000039
:10031000000000002181806670C301080000000019
:10032000000000006187C03260C7010C00000000BF
:1003300000000000618C6033607E030C0000000050
:1003400000000000611830136078030C000000000A
:1003500000000000619830136000020C00000000F3
:1003600000000000619C3013300002080000000013
:1003700000000000618C301330000608000000000F
:10038000000000006080303318000C0800000000FE
:100390000000000030C0603218000C0800000000AF
:1003A000000000003070C0220C001818000000008F
:1003B00000000000183F806207007010000000007D
:1003C000000000001804006601C1E03000000000D9
:1003D000000000000C00004600FF806000000000EC
:1003E0000000000006000084000000C000000000C3
:1003F000000000000300030800000180000000006E
:100400000000000001800618000007000000000046
:100410000000000000E01C3000001E000000000092
:1004200000000000003FE0E00011F00000000000CC
:1004300000000000000F8780001FC00000000000C7
:100440000000000000001E0000000000000000008E
:10045000000000000000200000000000000000007C
:10046000000000000000000000000000000000008C
:10047000000000000000000000000000000000007C
:10048000000000000000000000000000000000006C
:10049000000000000000000000000000000000005C
:1004A000000000000000000000000000000000004C
:1004B000000000000000000000000000000000003C
:1004C00073797374656D20626F6F742073756363E5
:1004D0006573730A63616D65726120636865636B40
:1004E000202020205B6F6B5D0A494D5520636865B5
:1004F000636B202020202020205B6F6B5D0A736FD0
:100500006E696320636865636B20202020205B6F29
:100510006B5D0A736572766F20636865636B20207C
:10052000205B6661696C5D0A626174746572792032
:10053000636865636B2020205B6F6B5D0A0A005463
:10054000656D70657261747572653A000000000037
:10055000003E5B4F5B3E3E6B4F6B3E1C3E7C3E1C49
:10056000183C7E3C181C577D571C1C5E7F5E1C008F
:10057000183C1800FFE7C3E7FF0018241800FFE746
:10058000DBE7FF30483A060E2629792926407F0509
:100590000507407F05253F5A3CE73C5A7F3E1C1C1F
:1005A00008081C1C3E7F14227F22145F5F005F5FDF
:1005B00006097F017F006689956A606060606094CB
:1005C000A2FFA29408047E040810207E20100808D0
:1005D0002A1C08081C2A08081E101010100C1E0CDB
:1005E0001E0C30383E3830060E3E0E06000000006D
:1005F0000000005F00000007000700147F147F1454
:10060000242A7F2A12231308646236495620500098
:1006100008070300001C2241000041221C002A1C84
:100620007F1C2A08083E080800807030000808086F
:100630000808000060600020100804023E5149458F
:100640003E00427F400072494949462141494D33AD
:100650001814127F1027454545393C4A4949314114
:10066000211109073649494936464949291E0000E2
:100670001400000040340000000814224114141437
:100680001414004122140802015909063E415D5923
:100690004E7C1211127C7F494949363E414141222C
:1006A0007F4141413E7F494949417F090909013E56
:1006B000414151737F0808087F00417F410020407D
:1006C000413F017F081422417F404040407F021C8F
:1006D000027F7F0408107F3E4141413E7F090909A6
:1006E000063E4151215E7F09192946264949493272
:1006F00003017F01033F4040403F1F2040201F3F38
:100700004038403F631408146303047804036159BC
:10071000494D43007F4141410204081020004141FE
:10072000417F0402010204404040404000030708AA
:100730000020545478407F284444383844444428A6
:10074000384444287F385454541800087E0902184D
:10075000A4A49C787F0804047800447D40002040D5
:10076000403D007F1028440000417F40007C047819
:1007700004787C080404783844444438FC18242461
:100780001818242418FC7C080404084854545424E1
:1007900004043F44243C4040207C1C2040201C3C5E
:1007A0004030403C44281028444C9090907C446455
:1007B000544C4400083641000000770000004136E8
:1007C000080002010204023C2623263C1EA1A1616E
:1007D000123A4040207A38545455592155557941A0
:1007E0002154547841215554784020545579400C77
:1007F0001E52721239555555593954545459395558
:100800005454580000457C410002457D420001459A
:100810007C40F0292429F0F0282528F07C54554507
:10082000002054547C547C0A097F4932494949329A
:100830003248484832324A4848303A4141217A3AAF
:1008400042402078009DA0A07D39444444393D4079
:1008500040403D3C24FF2424487E4943662B2FFC26
:100860002F2BFF0929F620C0887E090320545479D4
:10087000410000447D413048484A32384040227AA5
:10088000007A0A0A727D0D19317D2629292F282622
:100890002929292630484D4020380808080808082A
:1008A0000808382F10C8ACBA2F102834FA00007B83
:1008B000000008142A142222142A1408AA00550041
:1008C000AAAA55AA55AA000000FF00101010FF00A8
:1008D000141414FF001010FF00FF1010F010F0149B
:1008E0001414FC001414F700FF0000FF00FF1414A0
:1008F000F404FC141417101F10101F101F141414EC
:100900001F00101010F0000000001F101010101F2A
:1009100010101010F010000000FF10101010101038
:10092000101010FF10000000FF140000FF00FF0077
:10093000001F10170000FC04F414141710171414EF
:10094000F404F40000FF00F714141414141414F742
:1009500000F7141414171410101F101F141414F49B
:10096000141010F010F000001F101F0000001F14E2
:10097000000000FC140000F010F01010FF10FF1435
:100980001414FF141010101F00000000F010FFFFDF
:10099000FFFFFFF0F0F0F0F0FFFFFF0000000000AD
:1009A000FFFF0F0F0F0F0F38444438447C2A2A3EB4
:1009B000147E02020606027E027E026355494163EE
:1009C0003844443C04407E201E2006027E020299E8
:1009D000A5E7A5991C2A492A1C4C7201724C304A81
:1009E0004D4D303048784830BC625A463D3E49490A
:1009F00049007E0101017E2A2A2A2A2A44445F44B2
:100A00004440514A444040444A51400000FF0103E1
:100A1000E080FF000008086B6B08361236243606AB
:100A20000F090F06000018180000001010003040D9
:100A3000FF0101001F01011E00191D1712003C3C9F
:100A40003C3C000000000000000008000201000023
:100A50000304070000000000000000010204081069
:100A60002040800102040810200102040810200424
:100A70000404040404040402020202020203030345
:100A800003030300000000230026002900000000EB
:100A900000250028002B0000000000240027002A69
:100AA000004E414E494E495459494E46CDCCCC3D5D
:100AB0000AD7233C17B7D13877CC2B329595E6244B
:100AC0001FB14F0A000020410000C84200401C46F0
:100AD00020BCBE4CCA1B0E5AAEC59D743B0AD51A2B
:100AE0005D2111241FBECFEFD8E0DEBFCDBF15E0E2
:100AF000A0E0B1E0ECEAF3E502C005900D92A03869
:100B0000B107D9F727E0A0E8B5E001C01D92AC3AE3
:100B1000B207E1F71AE0C2EEDAE004C02297FE0164
:100B20000E94B927CC3DD107C9F70E94A1210C949E
:100B3000D4290C9400000F931F930E94A81D0091CC
:100B4000B4051091B5052091B6053091B705601B2D
:100B5000710B820B930B693E73408105910570F117
:100B60008091B80580FF06C08091BB059091BC05BF
:100B7000019605C08091BB059091BC0501979093AB
:100B8000BC058093BB050E94A81D6093B4057093BB
:100B9000B5058093B6059093B7058091AC0590910B
:100BA000AD05A091AE05B091AF0588608093AC050E
:100BB0009093AD05A093AE05B093AF051F910F9133
:100BC00008950F931F930E94A81D0091B0051091E6
:100BD000B1052091B2053091B305601B710B820BFA
:100BE000930B693E73408105910570F18091B805C2
:100BF00081FF06C08091B9059091BA05019605C0A4
:100C00008091B9059091BA0501979093BA058093A8
:100C1000B9050E94A81D6093B0057093B10580933B
:100C2000B2059093B3058091AC059091AD05A0916C
:100C3000AE05B091AF0580618093AC059093AD0592
:100C4000A093AE05B093AF051F910F9108950F9338
:100C50001F93CF93DF9304E815E0C0E0D0E0F801E4
:100C600061918F01CE010E9409282196C430D105DF
:100C7000B1F7DF91CF911F910F9108958823B9F0BB
:100C80008091B80577FF08C08D7F8093B8052C98B8
:100C900071956195710909C082608093B8052C9A9D
:100CA0008FEF90E0861B970BBC018AE010C080910B
:100CB000B80577FF07C08E7F8093B8055E9A6150B4
:100CC0007F4F04C081608093B8055E9889E00C94E2
:100CD000381E4F925F926F927F928F929F92AF9247
:100CE000BF92CF92DF92EF92FF920E94A81DC09018
:100CF000D105D090D205E090D305F090D4056C19C1
:100D00007D098E099F09613177428105910508F4BB
:100D10001DC12091DD053091DE054091DF05509128
:100D2000E0056091F9057091FA058091FB059091BD
:100D3000FC050E942C244B015C012091D5053091CB
:100D4000D6054091D7055091D8050E942D246B01FE
:100D50007C016093D5057093D6058093D705909359
:100D6000D80523E333E343E150E4C501B4010E9415
:100D700072264B015C0120E030E040EC50E4C701FA
:100D8000B6010E9472269B01AC01C501B4010E940C
:100D90002D246B017C012FE632E143E85AE3609198
:100DA00001067091020680910306909104060E944C
:100DB00072269B01AC01C701B6010E942D246B0174
:100DC0007C016093D9057093DA058093DB059093DD
:100DD000DC058091AC0581FF09C01092C10510921D
:100DE000C2051092C3051092C4053EC04090FD0597
:100DF0005090FE056090FF05709000062091C1059F
:100E00003091C2054091C3055091C405C301B201A0
:100E10000E942D244B015C016093C1057093C205B3
:100E20008093C3059093C40527E137EB41ED58E368
:100E3000C301B2010E9472262B013C0122E539E474
:100E40004DE159E3C501B4010E9472269B01AC013A
:100E5000C301B2010E942D246093BD057093BE05AD
:100E60008093BF059093C0054090BD055090BE058E
:100E70006090BF057090C005A3019201C701B60143
:100E80000E942D244B015C01A3019201C701B60110
:100E90000E942C246B017C0120E030E04FE753E4FA
:100EA000C501B4010E94672618168CF020E030E0DE
:100EB0004FE753ECC501B4010E94F32487FF0DC036
:100EC000812C912C2FE7A22E23ECB22E06C0812C70
:100ED000912C3FE7A32E33E4B32E20E030E04FE720
:100EE00053E4C701B6010E94672618168CF020E073
:100EF00030E04FE753ECC701B6010E94F32487FFAF
:100F00000DC0C12CD12C8FE7E82E83ECF82E06C043
:100F1000C12CD12C9FE7E92E93E4F92EC501B40131
:100F20000E945F2580E00E943E06C701B6010E9434
:100F30005F2581E00E943E060E94A81D6093D105B6
:100F40007093D2058093D3059093D405FF90EF90D2
:100F5000DF90CF90BF90AF909F908F907F906F90D9
:100F60005F904F9008958F929F92AF92BF92CF92D1
:100F7000DF92EF92FF920E94A81DC090C505D0900D
:100F8000C605E090C705F090C8056C197D098E096B
:100F90009F096135734C8105910508F474C0609117
:100FA000BB057091BC058091B9059091BA05680F99
:100FB000791F882777FD8095982F0E94922520E041
:100FC00030E040E05FE30E9472262091CD05309131
:100FD000CE054091CF055091D0050E942C244B01A5
:100FE0005C012091C9053091CA054091CB05509113
:100FF000CC050E942D246B017C016093C905709380
:10100000CA058093CB059093CC051092BC05109235
:10101000BB051092BA051092B90529E23CE54FE0F4
:101020005DE3C501B4010E9472264B015C0127E11A
:1010300037EB41E559E3C701B6010E9472269B01D7
:10104000AC01C501B4010E942D249B01AC0160914B
:1010500084057091850580918605909187050E9491
:101060002C246093DD057093DE058093DF0590935B
:10107000E0050E94A81D6093C5057093C605809386
:10108000C7059093C805FF90EF90DF90CF90BF9079
:10109000AF909F908F9008954F925F926F927F9242
:1010A0008F929F92AF92BF92CF92DF92EF92FF9278
:1010B0008091AC0585FF4BC164E075E089E895E05F
:1010C0000E94D52764E075E080E090E00E94D5277B
:1010D0000E94D1276093A0057093A1058093A2057B
:1010E0009093A30566E075E080E090E00E94D5272C
:1010F0000E94D1276B017C0160939C0570939D0534
:1011000080939E0590939F0580918A058090AC0501
:101110009090AD05A090AE05B090AF058D3409F468
:1011200054C0833509F4E8C08A3409F0FFC020E0D8
:1011300030E040EF51E4C701B6010E9472262B0156
:101140003C016093CD057093CE058093CF059093BD
:10115000D005C090A005D090A105E090A205F09028
:10116000A3052DEC3CEC4CE45EE3C701B6010E9404
:101170006726181654F02DEC3CEC4CE45EEBC701EE
:10118000B6010E94F32487FFA2C082E4882A8092DD
:10119000AC059092AD05A092AE05B092AF0520E0EF
:1011A00030E0A901C301B2010E94672618162CF491
:1011B00020E030E040E751E475C0C701B601905827
:1011C00020E030E040E751E477C020E030E040EA42
:1011D00051E46091A0057091A1058091A2059091C4
:1011E000A3050E942D242B013C0120E030E040EFBC
:1011F00051E40E94672618162CF480E090E0A0EFDE
:10120000B1E417C020E030E040EF51ECC301B2017F
:101210000E94F32487FD09C04092CD055092CE056F
:101220006092CF057092D0050CC080E090E0A0EFF6
:10123000B1EC8093CD059093CE05A093CF05B093EC
:10124000D00520E030E040E251E4C701B6010E9441
:101250006726181654F020E030E040E251ECC70158
:10126000B6010E94F32487FF32C082E4882A80926C
:10127000AC059092AD05A092AE05B092AF0520E00E
:1012800030E0A9016091CD057091CE058091CF0528
:101290009091D0050E94672618163CF42AE939E996
:1012A00049E95EE3C701B60107C0C701B60190581E
:1012B0002AE939E949E95EE30E9472266093BD0597
:1012C0007093BE058093BF059093C0052FC0E8942E
:1012D00081F8689486F88092AC059092AD05A09252
:1012E000AE05B092AF051092BD051092BE051092EA
:1012F000BF051092C0051AC01092CD051092CE0500
:101300001092CF051092D0051092BD051092BE0527
:101310001092BF051092C0058DEB88228092AC051B
:101320009092AD05A092AE05B092AF058091AC054C
:101330009091AD05A091AE05B091AF058F7D8093E2
:10134000AC059093AD05A093AE05B093AF05FF90AB
:10135000EF90DF90CF90BF90AF909F908F907F9055
:101360006F905F904F900895CF92DF92EF92FF922F
:101370002898289A8AE090E00E94F31D28982CED86
:1013800035E040E050E061E087E00E942F1F0E94BE
:10139000902526E933E44BE85CE30E9472266093D3
:1013A000A4057093A5058093A6059093A7050E94B8
:1013B000A81D6093A8057093A9058093AA05909332
:1013C000AB058091AC0586FD50C0C090A405D090BF
:1013D000A505E090A605F090A70520E030E040E2EA
:1013E00051E4C701B6010E94672618167CF420E07C
:1013F00030E040E751E4C701B6010E94F32487FFC3
:1014000005C080E090E0A0EFB1E417C020E030E03C
:1014100040E051E4C701B6010E94F32487FF18C0E1
:1014200020E030E0A901C701B6010E946726181626
:101430007CF480E090E0A0EFB1EC8093CD05909338
:10144000CE05A093CF05B093D00560E070E00AC050
:101450001092CD051092CE051092CF051092D005B6
:101460006FEF70E08BE00E94381EFF90EF90DF90EE
:10147000CF900C946906EF920F93EE24EA9400E16A
:1014800021E14EE06FE081E196E00E9464140F914B
:10149000EF900895CF93DF93D82FC62F68E580E4AF
:1014A00096E00E94B31A6D2F80E496E00E945A1ACB
:1014B0006C2F80E496E00E945A1A80E496E0DF9157
:1014C000CF910C94D21A80E496E00E94991A61E0C0
:1014D00080E30E944A0A6AE070E080E090E00E94A7
:1014E000CB1D68E080E30E944A0A6AE070E080E079
:1014F00090E00E94CB1D60E986E00E944A0A6AE003
:1015000070E080E090E00E94CB1D60EC88E00E94DB
:101510004A0A6AE070E080E090E00E94CB1D60E43F
:101520008AE10E944A0A6AE070E080E090E00E944E
:10153000CB1D63E383E30E944A0A6AE070E080E027
:1015400090E00E94CB1D64E670E080E090E00C9497
:10155000CB1DEF92FF920F931F93CF93DF93CDB7E5
:10156000DEB760970FB6F894DEBF0FBECDBF68E55B
:1015700080E496E00E94B31AE0914006F0914106A3
:101580000190F081E02D66E380E496E0099580E427
:1015900096E00E94D21A40E150E068E570E080E4F5
:1015A00096E00E94B01A7E0141E1E40EF11CFE01BA
:1015B00031961192EE15FF05E1F78E010F5F1F4F77
:1015C00080E496E00E94021A892B19F00E151F057F
:1015D00039F53B812C814A81822F807350E1859FB0
:1015E000C0011124840F911D90933B0680933A060D
:1015F000822F807CE4E08E9FC0011124830F911D17
:1016000090933D0680933C062F7030E030933F0668
:1016100020933E0681E02A30310554F080E008C076
:1016200080E496E00E940A1AF80181938F01C8CFE6
:1016300060960FB6F894DEBF0FBECDBFDF91CF919D
:101640001F910F91FF90EF900895CF92DF92EF924C
:10165000FF920F931F93CF93DF93C82FF62EE72EA1
:10166000142F68E680E496E00E94B31A6C2F80E4A1
:1016700096E00E945A1A60E080E496E00E94BF1A49
:10168000C82F882379F066E970E08DE097E00E942A
:10169000EE214AE050E06C2F8DE097E00E94E022BE
:1016A0008C2F3AC021E0412F68E680E496E00E944A
:1016B000A31A0F2DCF2DDE2D8C2F801B811718F52F
:1016C00080E496E00E94021A892BB1F40E94A81DC2
:1016D0006B017C010E94A81D6C197D098E099F0970
:1016E000683E73408105910580F480E496E00E9495
:1016F000021A892B51F4EECF80E496E00E940A1A78
:1017000088832196D9CF80E007C080E496E00E94CC
:10171000021A892B89F785E0DF91CF911F910F91F4
:10172000FF90EF90DF90CF9008954F925F926F926D
:101730007F928F929F92AF92BF92CF92DF92EF9261
:10174000FF92CF93DF9300D000D0CDB7DEB74EE04D
:1017500061EE75E08BE30E94250B8111F8CF60915B
:10176000E10570E0762F66278091E205682B8827D7
:1017700077FD8095982F0E94922560930D067093B7
:101780000E0680930F06909310066091E30570E0BB
:10179000762F66278091E405682B882777FD809552
:1017A000982F0E9492256093090670930A068093F1
:1017B0000B0690930C066091E50570E0762F662786
:1017C0008091E605682B882777FD8095982F0E94E9
:1017D0009225609305067093060680930706909302
:1017E00008068091E70590E0982F88272091E8056A
:1017F000822B9093F4058093F3056091EB0570E0E4
:10180000762F66278091EC05682B882777FD8095D9
:10181000982F0E9492256093010670930206809390
:101820000306909304066091ED0570E0762F66271D
:101830008091EE05682B882777FD8095982F0E9470
:1018400092256093FD057093FE058093FF059093AC
:1018500000060E9469060E94A81DC090EF05D09066
:10186000F005E090F105F090F2056C197D098E0904
:101870009F090E94902520E034E244E759E40E9449
:10188000F7244B015C010E94A81D6093EF05709343
:10189000F0058093F1059093F2056091090670912F
:1018A0000A0680910B0690910C06C0900506D09018
:1018B0000606E0900706F09008069B01AC010E9426
:1018C00072262B013C01A7019601C701B6010E94B7
:1018D00072269B01AC01C301B2010E942D240E941B
:1018E000D9269B01AC0180910D0690910E06A09126
:1018F0000F06B0911006BC01CD0190580E94F7244C
:101900000E94CB242B013C0120E030E043E053E473
:101910006091010670910206809103069091040681
:101920000E94F72469837A838B839C830E946906D3
:10193000A501940169817A818B819C810E94722624
:101940006B017C019B01AC016091F5057091F6057E
:101950008091F7059091F8050E942D246093F5057C
:101960007093F6058093F7059093F8052091F9059B
:101970003091FA054091FB055091FC05C701B60175
:101980000E942D242BE734E14EE65FE30E9472268D
:101990006B017C0121EE3EE245E652E4C301B20157
:1019A0000E94722629E23CE54FE85DE30E94722620
:1019B0009B01AC01C701B6010E942D246093F9057B
:1019C0007093FA058093FB059093FC0520918405A4
:1019D0003091850540918605509187050E942C2401
:1019E0006B017C0120E030E0A9010E9467261816F7
:1019F0005CF420E030E040E751E4C701B6010E940A
:101A0000672618165CF01BC020E030E040E751EC80
:101A1000C701B6010E94F32487FF11C08091AC0575
:101A20009091AD05A091AE05B091AF058460809313
:101A3000AC059093AD05A093AE05B093AF050F90A4
:101A40000F900F900F90DF91CF91FF90EF90DF906C
:101A5000CF90BF90AF909F908F907F906F905F904E
:101A60004F9008956F927F928F929F92AF92BF9204
:101A7000CF92DF92EF92FF920F931F93CF93DF935A
:101A80003C016B018A017901EC0121974901860E25
:101A9000971ECF3F8FEFD807A9F05E01A00EB11EB1
:101AA00021E030E0A701B50181E196E00E94CD136D
:101AB00021E030E0A401B50181E196E00E94CD1360
:101AC0002197E7CF81E0C81AD108600E711E8FEF11
:101AD000C816D806B9F0E601CE0DDF1D21E030E0D2
:101AE000AE01B80181E196E00E94CD1321E030E023
:101AF000AE01B30181E196E00E94CD1381E0C81AE6
:101B0000D108E5CFDF91CF911F910F91FF90EF901A
:101B1000DF90CF90BF90AF909F908F907F906F900D
:101B200008954F925F926F927F929F92AF92BF9271
:101B3000CF92DF92EF92FF920F931F93CF93DF9399
:101B400000D000D0CDB7DEB70E94A90A882309F4DF
:101B50006BC060913A0670913B06882777FD8095AF
:101B6000982F1F921F921F9210E8912E9F92A12CE6
:101B7000B12C650118EEE12E13E0F12E00E010E02B
:101B800020E030E0A9010E94E4232B013C01609198
:101B90003C0670913D06882777FD8095982F1F920F
:101BA0001F921F929F9210E2E12E13E0F12E00E0AF
:101BB00010E020E030E0A9010E94E4239B01AC0189
:101BC00081E196E029833A834B835C830E948E14E3
:101BD00060913E0670913F06E5E0E69FC001E79FF9
:101BE000900D112429813A81A201BC010E94320D7D
:101BF0000FB6F894DEBF0FBECDBF81E196E00F9027
:101C00000F900F900F90DF91CF911F910F91FF9048
:101C1000EF90DF90CF90BF90AF909F907F906F90AC
:101C20005F904F900C9404160F900F900F900F90B0
:101C3000DF91CF911F910F91FF90EF90DF90CF90A8
:101C4000BF90AF909F907F906F905F904F9008955E
:101C50004F925F926F927F928F929F92AF92BF92BC
:101C6000CF92DF92EF92FF928091AC059091AD05FB
:101C7000A091AE05B091AF0580FF40C24D9B36C12B
:101C80000E94910D4EE061EE75E08BE30E94250B02
:101C90008111F8CF6091E10570E0762F6627809181
:101CA000E205682B882777FD8095982F0E94922562
:101CB00060930D0670930E0680930F0690931006A6
:101CC0006091E30570E0762F66278091E405682B2C
:101CD000882777FD8095982F0E94922560930906AA
:101CE00070930A0680930B0690930C066091E505AD
:101CF00070E0762F66278091E605682B882777FDB0
:101D00008095982F0E949225609305067093060691
:101D100080930706909308068091E70590E0982F3E
:101D200088272091E805822B9093F4058093F30592
:101D30006091EB0570E0762F66278091EC05682BAB
:101D4000882777FD8095982F0E9492256093010641
:101D50007093020680930306909304066091ED054C
:101D600070E0762F66278091EE05682B882777FD37
:101D70008095982F0E9492256093FD057093FE0533
:101D80008093FF05909300060E94A81DC090EF0568
:101D9000D090F005E090F105F090F2056C197D0906
:101DA0008E099F090E94902520E034E244E759E41F
:101DB0000E94F7244B015C010E94A81D6093EF056F
:101DC0007093F0058093F1059093F20560910906F8
:101DD00070910A0680910B0690910C06C090050642
:101DE000D0900606E0900706F09008069B01AC0133
:101DF0000E9472262B013C01A7019601C701B60182
:101E00000E9472269B01AC01C301B2010E942D24E5
:101E10000E94D9269B01AC0180910D0690910E067F
:101E2000A0910F06B0911006BC01CD0190580E9400
:101E3000F7240E94CB242B013C0120E030E043E05A
:101E400053E460910106709102068091030690911F
:101E500004060E94F724A50194010E9472266B01DA
:101E60007C019B01AC016091F5057091F6058091B4
:101E7000F7059091F8050E942D246093F505709365
:101E8000F6058093F7059093F8052091F9053091B8
:101E9000FA054091FB055091FC05C701B6010E946F
:101EA0002D242BE734E14EE65FE30E9472266B019E
:101EB0007C0121EE3EE245E652E4C301B2010E94FC
:101EC000722629E23CE54FE85DE30E9472269B0101
:101ED000AC01C701B6010E942D246093F9057093EF
:101EE000FA058093FB059093FC05C8CE68EE73E07D
:101EF00080E090E00E94CB1D4D99F6C081E196E014
:101F00000E948E1462E081E196E00E94EB1940E0AD
:101F100050E06CE070E081E196E00E94E51968E035
:101F200075E081E196E00E94132263E081E196E092
:101F30000E94EB194EE150E064E170E081E196E02F
:101F40000E94E519409184055091850560918605B0
:101F50007091870522E030E081E196E00E94E22363
:101F600081E196E00E9404164D9BFECF81E196E050
:101F70000E948E1462E081E196E00E94EB1940E03D
:101F800050E06CE070E081E196E00E94E51968E0C5
:101F900075E081E196E00E94132263E081E196E022
:101FA0000E94EB194EE150E064E170E081E196E0BF
:101FB0000E94E51940918405509185056091860540
:101FC0007091870522E030E081E196E00E94E223F3
:101FD00081E196E00E940416C090AC05D090AD055A
:101FE000E090AE05F090AF05C3FE20C02DEC3CECB8
:101FF0004CEC5DE3609184057091850580918605C8
:10200000909187050E942C24609384057093850528
:102010008093860590938705E894C3F8C092AC0539
:10202000D092AD05E092AE05F092AF05C090AC0540
:10203000D090AD05E090AE05F090AF05C4FE20C095
:102040002DEC3CEC4CEC5DE36091840570918505D2
:1020500080918605909187050E942D2460938405C8
:10206000709385058093860590938705E894C4F85E
:10207000C092AC05D092AD05E092AE05F092AF05EE
:102080004D992BC0609184057091850580918605DE
:10209000909187050E94270681E196E00E948E14A8
:1020A00063E081E196E00E94EB1944E150E064E1D5
:1020B00070E081E196E00E94E51962E175E081E15E
:1020C00096E00E94132281E196E00E94041668EED9
:1020D00073E080E090E00E94CB1D6CE271E080E054
:1020E00090E00E94CB1D42CF8091AC059091AD0550
:1020F000A091AE05B091AF058E7F03C04D9909C088
:1021000084608093AC059093AD05A093AE05B09329
:10211000AF05FF90EF90DF90CF90BF90AF909F9072
:102120008F907F906F905F904F900895EF92FF9205
:102130001F93CF93DF9300D0CDB7DEB7182F7B016D
:1021400068E680E496E02A8349830E94B31A612FEF
:1021500080E496E00E945A1A498150E0B70180E479
:1021600096E00E942D1A2A81622F80E496E00E9458
:10217000BF1A182F882369F067EA70E08DE097E0B6
:102180000E94EE214AE050E0612F8DE097E00E942E
:10219000E022812F0F900F90DF91CF911F91FF9040
:1021A000EF900895CF93DF931F92CDB7DEB7698389
:1021B000242F41E0BE016F5F7F4F0E9496100F9069
:1021C000DF91CF9108954F925F926F927F928F929D
:1021D0009F92AF92BF92CF92DF92EF92FF920F93B6
:1021E0001F93CF93DF9304E815E0C0E0D0E0CE0169
:1021F0000E940128F80181938F012196C430D105F6
:10220000B1F78091840590918505A0918605B091E4
:1022100087058093DD059093DE05A093DF05B093DD
:10222000E00561E08CE00E94C01E61E086E00E9453
:10223000C01E61E084E00E94C01E61E08BE00E944D
:10224000C01E61E088E00E94C01E60E087E00E943E
:10225000C01E60E085E00E94C01E61E085E00E9433
:10226000F91E60E084E00E94F91E60E088E00E94B0
:10227000F91E6FEF70E08BE00E94381E60E070E0A6
:1022800080E00E943E0660E070E081E00E943E0631
:1022900026E040E052EC61E070E08DE097E00E94C3
:1022A000992080E496E00E94991A4CE362E081E173
:1022B00096E00E94FF1481E196E00E948E1464E093
:1022C00081E196E00E94EB1961E070E081E196E027
:1022D0000E94F11944E150E064E170E081E196E090
:1022E0000E94E51968E175E081E196E00E94132201
:1022F00081E196E00E94041661E084E00E94F91EEC
:1023000064EF71E080E090E00E94CB1D87E0809355
:10231000E1051092E2051092E3051092E40520E039
:1023200044E061EE75E089E10E9496108111F7CFDB
:1023300041E061E08BE60E94D2108111F9CF41E0CB
:1023400061EE75E085E70E94250B8111F8CF809141
:10235000E105883609F0FFCF64E670E080E090E0A8
:102360000E94CB1D46E061EE75E08BE30E94250BD9
:102370008111F8CF6091E10570E0762F662780919A
:10238000E205682B882777FD8095982F0E9492257B
:102390002B013C0160930D0670930E0680930F068F
:1023A000909310066091E30570E0762F6627809188
:1023B000E405682B882777FD8095982F0E94922549
:1023C0004B015C016093090670930A0680930B062B
:1023D00090930C066091E50570E0762F662780915A
:1023E000E605682B882777FD8095982F0E94922517
:1023F0006B017C01609305067093060680930706C7
:10240000909308068091E70590E0982F8827209107
:10241000E805822B9093F4058093F305A5019401C0
:10242000C501B4010E9472264B015C01A70196010F
:10243000C701B6010E9472269B01AC01C501B4011F
:102440000E942D240E94D9269B01AC01C301B20138
:1024500090580E94F7240E94CB2421EE3EE245E6EC
:1024600052E40E9472266093F5057093F6058093FE
:10247000F7059093F8056093F9057093FA0580933A
:10248000FB059093FC050E94A81D6093EF057093D7
:10249000F0058093F1059093F2050E94630A42E0F3
:1024A00050E06BE975E080E00E94E41C42E050E0FF
:1024B00061EE75E081E00E94E41C61E084E00E942E
:1024C000F91E8091AC059091AD05A091AE05B0913B
:1024D000AF0581608093AC059093AD05A093AE05E8
:1024E000B093AF0581E196E00E948E1461E081E136
:1024F00096E00E94EB1940E050E060E070E081E17E
:1025000096E00E94E519C0ECD4E0F5E0CE33DF0799
:1025100041F0FE01649181E196E00E94152221962E
:10252000F4CFCFE3D5E0F5E0CB34DF0741F0FE0197
:10253000649181E196E00E9415222196F4CF60918A
:10254000F3057091F405882777FD8095982F0E94F8
:10255000922520E030E04AEA53E40E94F72421E784
:102560003DE34CEF51E40E942D24AB01BC0122E07D
:1025700030E081E196E00E94E22381E196E0DF9184
:10258000CF911F910F91FF90EF90DF90CF90BF9070
:10259000AF909F908F907F906F905F904F900C9432
:1025A00004168DE097E00E94B61F181619063CF538
:1025B0008DE097E00E94CF1F90918805E92FFF27BB
:1025C000E7FDF095E757FA4F80838B33A1F4109223
:1025D00088058091AC059091AD05A091AE05B091B4
:1025E000AF0580628093AC059093AD05A093AE05D6
:1025F000B093AF05D6CF9F5F90938805D2CF089553
:10260000CF92DF92EF92FF920F931F938091AC05D0
:1026100082FF32C060E070E080E00E943E0660E031
:1026200070E081E00E943E0681E196E00E948E14F7
:10263000CC24C394D12C90E4E92EF12C00E810E0D6
:1026400020EC30E040E050E060E070E081E196E0B6
:102650000E94241881E196E00E94041664EF71E064
:1026600080E090E00E94CB1D4D99F8CFE09182056B
:10267000F09183050995F2CF0E94280E0E94B307BE
:102680000E9469060E94950B0E9469060E94A81D7F
:102690000091A8051091A9052091AA053091AB05DC
:1026A000601B710B820B930B613A76488140910558
:1026B00010F00E94B4096DEB70E08DE097E00E948D
:1026C000EE212091050630910606409107065091B3
:1026D000080660910D0670910E0680910F0690918C
:1026E00010060E94A02421EE3EE245E652E40E943C
:1026F000722620E030E044E353E40E942D24AB0135
:10270000BC0122E030E08DE097E00E94E2236BEB19
:1027100070E08DE097E00E94EE2120E030E043E0A1
:1027200053E4609101067091020680910306909136
:1027300004060E94F72420E030E044E353E40E94C2
:102740002D24AB01BC0122E030E08DE097E00E9437
:10275000E22369EB70E08DE097E00E94EE216DE1ED
:1027600075E08DE097E00E9413226FE175E08DE047
:1027700097E00E9413220E94D1120E944C0884EF1D
:1027800091E00E94F31D0E94B3071F910F91FF90EB
:10279000EF90DF90CF900C946906CF92DF92EF928A
:1027A000FF920F931F93CF93DF937C018B01EA017C
:1027B000690177FD80C00E94FA19081719070CF00B
:1027C0007AC0D7FD78C0C7010E94FE19C817D90783
:1027D0000CF071C0C7010E94F719823009F05FC088
:1027E000F701848195819C01201B310B89010150E7
:1027F000110986819781FC01EC1BFD0BEF012197EC
:102800000BC0813049F4F701848195818C1B9D0BAD
:10281000E8018C0101501109CA94CD28F9F4FE0198
:10282000D7FD379623E0F595E7952A95E1F7F695DC
:10283000FE2FEE27F795E795E00FF11FEC5FFE4FB7
:10284000CE0168E070E00E94432721E030E001C043
:10285000220F8A95EAF78081822B1FC0FE01D7FDE7
:10286000379683E0F595E7958A95E1F7F695FE2F83
:10287000EE27F795E795E00FF11FEC5FFE4FCE01D5
:1028800068E070E00E94432721E030E001C0220FA1
:102890008A95EAF720958081822380830CC083305B
:1028A00009F0AFCFF70186819781801B910B8E01D4
:1028B000EC012197B1CFDF91CF911F910F91FF9044
:1028C000EF90DF90CF900895CF92DF92EF92FF923A
:1028D0000F931F93CF93DF931F92CDB7DEB76C0199
:1028E000162FF42E40E450E060E870E029830E9447
:1028F000061885E295E0F60191838083E48E038FCC
:102900002981228FF18E108F0F90DF91CF911F912F
:102910000F91FF90EF90DF90CF90089580E094E0CA
:10292000E4E0F1E0DF019C011D9221503040E1F72D
:102930000895FC0188E090E030E8A78DB0A14C91AB
:1029400026A1209524232C93A58DB68D25A1432F58
:10295000462321F04C91422B4C9304C04C9120957E
:1029600024232C93A78DB0A12C9146A1242B2C932A
:102970003695019711F708951F93CF93DF93EC01DC
:10298000162F888D8F3F09F1E9A1FAA180819FA1BF
:10299000892B8083EBA1FCA1908188A58095892358
:1029A0008083E9A1FAA190818FA1809589238083FA
:1029B000CE010E949914E9A1FAA180819FA1892BDF
:1029C0008083DF91CF911F9108958F89682F77279A
:1029D00067FD709580E496E00E94BD1A60E080E497
:1029E00096E00E945A1A612F80E496E00E945A1ADB
:1029F00080E496E0DF91CF911F910C94D21A1F933F
:102A0000CF93DF93EC01162F4F8B888D8F3F09F406
:102A100068C061E00E94C01E61E0898D0E94C01EF6
:102A200061E08A8D0E94C01E61E08C8D0E94C01EF4
:102A3000898D992787FD9095FC01E159F54FE49127
:102A4000F0E0EE0FFF1FE357F54F2591349138A3C7
:102A50002F8FFC01E55AF54F84918EA3888D99271D
:102A600087FD9095FC01E159F54FE491F0E0EE0F00
:102A7000FF1FE357F54F259134913E8F2D8FFC01B9
:102A8000E55AF54F84918DA38C8D992787FD9095FC
:102A9000FC01E159F54FE491F0E0EE0FFF1FE35721
:102AA000F54F259134913AA329A3FC01E55AF54F3E
:102AB00084918FA38A8D992787FD9095FC01E15918
:102AC000F54FE491F0E0EE0FFF1FE357F54F25912E
:102AD00034913CA32BA3FC01E55AF54F849188A7C0
:102AE00004C080E496E00E94991A61E08B8D0E94F8
:102AF000C01E61E08B8D0E94F91E61E070E080E0F5
:102B000090E00E94CB1D60E08B8D0E94F91E6AE070
:102B100070E080E090E00E94CB1D61E08B8D0E9410
:102B2000F91E6EEACE010E94BC1465EDCE010E9432
:102B3000BC1460E8CE010E94BC1468EACE010E9479
:102B4000BC146FE3CE010E94BC1463EDCE010E9461
:102B5000BC1460E0CE010E94BC1460E4CE010E946F
:102B6000BC146DE8CE010E94BC14113011F460E178
:102B700001C064E1CE010E94BC1460E2CE010E945B
:102B8000BC1460E0CE010E94BC1461EACE010E9438
:102B9000BC1468ECCE010E94BC146AEDCE010E9408
:102BA000BC1462E1CE010E94BC1461E8CE010E9417
:102BB000BC14113011F46FE901C06FECCE010E941A
:102BC000BC1469EDCE010E94BC14113011F462E214
:102BD00001C061EFCE010E94BC146BEDCE010E94DA
:102BE000BC1460E4CE010E94BC1464EACE010E94D1
:102BF000BC1466EACE010E94BC146FEACE01DF91DC
:102C0000CF911F910C94BC14DF92EF92FF920F931F
:102C10001F93CF93DF93EC0160E00E94BC1460E14E
:102C2000CE010E94BC1460E4CE010E94BC14888DC9
:102C30008F3F31F1E9A1FAA180819FA1892B808387
:102C4000EBA1FCA1808198A5892B8083E9A1FAA141
:102C500090818FA180958923808304E011E0F801A1
:102C600061918F01CE010E949914F5E004301F0795
:102C7000B1F7E9A1FAA180819FA1892B808337C098
:102C8000D090B8008CE08093B80004E011E06F8928
:102C9000772767FD709580E496E00E94BD1AE09169
:102CA0004006F09141060190F081E02D60E480E45F
:102CB00096E00995E12CF12CF801EE0DFF1D6081E5
:102CC00080E496E00E945A1A8FEFE81AF80AE0E1D1
:102CD000EE16F10489F780E496E00E94D21A005FB4
:102CE0001F4FF5E004301F0791F6D092B800DF9136
:102CF000CF911F910F91FF90EF90DF9008952F9249
:102D00003F924F925F926F927F928F929F92AF927B
:102D1000BF92CF92DF92EF92FF920F931F93CF93C8
:102D2000DF9300D000D0CDB7DEB74C017C836B833E
:102D30006A015901C8018701AC014C195D0957FFAF
:102D400003C051954195510995016B817C81261BEA
:102D5000370B37FF03C03195219531092224239485
:102D6000312C2417350714F0212C312C2114310477
:102D700059F03A2D2B2D5C01832F922F3B812C8112
:102D8000DC82CB82C32ED22EAB81BC81AA16BB06BD
:102D90005CF43C2D2D2D6C01832F922F3B812C81D7
:102DA000BC82AB82A32EB22E2501EB81FC814E1A90
:102DB0005F0A3C016C187D0877FE03C07194619432
:102DC0007108720157FE03C0FFEFEF1AFF0AF59476
:102DD000E794C816D9062CF421E030E03A83298321
:102DE00024C06FEF7FEF7A8369831FC0D401ED9118
:102DF000FC910480F581E02D980121143104D9F073
:102E00004B815C81B601C4010995E618F708F7FE0D
:102E100006C0E981FA81CE0EDF1EE40CF51C2B8181
:102E20003C812F5F3F4F3C832B836B817C81A616B7
:102E3000B706E4F604C0A6016B817C81E4CF0F9055
:102E40000F900F900F90DF91CF911F910F91FF90F6
:102E5000EF90DF90CF90BF90AF909F908F907F903A
:102E60006F905F904F903F902F9008956F927F9258
:102E70008F929F92AF92BF92CF92DF92EF92FF928A
:102E80000F931F93CF93DF93EC015B016A0139012C
:102E90004801E881F9810284F385E02D87010995D5
:102EA000E881F981A601480D591D4150510902845C
:102EB000F385E02D9301B501CE010995E881F981F3
:102EC0000084F185E02D9401A601B501CE0109959C
:102ED000E881F981B501660D771D615071090084A3
:102EE000F185E02D9401A601CE010995DF91CF91E6
:102EF0001F910F91FF90EF90DF90CF90BF90AF9018
:102F00009F908F907F906F900895EF92FF920F9314
:102F10001F93DC01ED91FC91240F351F21503109E5
:102F20000680F781E02D780189019B0109951F91A9
:102F30000F91FF90EF900895EF92FF920F931F93E0
:102F4000DC01ED91FC91260F371F215031090680DD
:102F5000F781E02D78018A0109951F910F91FF906B
:102F6000EF9008956F927F928F929F92AF92BF924F
:102F7000CF92DF92EF92FF920F931F93CF93DF9345
:102F80005C014A0169013801EB01C60ED71ECC1560
:102F9000DD0574F4D501ED91FC910084F185E02DFF
:102FA00087019301A401BE01C50109952196EFCFC8
:102FB000DF91CF911F910F91FF90EF90DF90CF9015
:102FC000BF90AF909F908F907F906F900895EF92F9
:102FD000FF920F931F93DC01ED91FC9111971A96CC
:102FE0000D911C911B9718962D913C911997068471
:102FF000F785E02D7B0140E050E060E070E009954E
:103000001F910F91FF90EF9008950895FC01138296
:1030100012828DE395E09183808375836483578367
:1030200046837187608753874287158A1586148681
:103030001786168621E0248B8FEF9FEF938B828B70
:10304000918B808B268B08952F923F924F925F92A7
:103050006F927F928F929F92AF92BF92CF92DF92A8
:10306000EF92FF920F931F93CF93DF93CDB7DEB70D
:1030700028970FB6F894DEBF0FBECDBF5C011B01D1
:103080005C834B8329013701C801079697FD07969A
:103090009C01B3E035952795BA95E1F73A832983EA
:1030A000812C912CE12CF12CE614F7040CF048C093
:1030B00018861F82AB81BC81AE0DBF1DBE83AD8360
:1030C0002F813885201731079CF5EF81F885F7FDB2
:1030D0003796A3E0F595E795AA95E1F7E80DF91D78
:1030E000E40DF51DE491F0E08F81988587709927B4
:1030F000A0E8B0E002C0B595A7958A95E2F7EA236B
:10310000FB23EF2B79F0D501ED91FC910480F58143
:10311000E02D96014D815E816F817885620D731D72
:10312000C5010995EF81F8853196F887EF83C8CFFF
:103130003FEFE31AF30A89819A81880E991EB4CF72
:1031400028960FB6F894DEBF0FBECDBFDF91CF91AA
:103150001F910F91FF90EF90DF90CF90BF90AF90B5
:103160009F908F907F906F905F904F903F902F90A7
:1031700008952F923F924F925F926F927F928F921B
:103180009F92AF92BF92CF92DF92EF92FF920F93F6
:103190001F93CF93DF93CDB7DEB72C970FB6F8947C
:1031A000DEBF0FBECDBF9C878B873A0118870F8388
:1031B000FA86E986CD82DC0118968D919C9119974B
:1031C000681779070CF094C01A968D919C911B9703
:1031D000481759070CF08CC08C2C912CCB01B6E011
:1031E000CB9E800D911D1124181619060CF080C07D
:1031F000C40113E0880F991F1A95E1F7840F951FFA
:10320000181619060CF074C0F5E02F9F2001112448
:103210005B016B011C829201245B3A4F2901461A23
:10322000570A3C81353031F0F201EA0DFB1D449123
:103230004B8301C01B827A82698213011E828B81BB
:1032400080FF13C0AB85BC85ED91FC91BD81B13091
:1032500031F40480F581E02D2F81388519C0068472
:10326000F785E02DEF80F8841EC0E985FA852F816F
:103270003885E217F307F9F0AB85BC85ED91FC9139
:10328000BD81B13059F40480F581E02D29853A855E
:10329000A101B5018B859C8509950DC00684F78534
:1032A000E02DE984FA848401940149815A81B601B0
:1032B0008B859C850995EB81E695EB83FE81FF5F0D
:1032C000FE8329813A81280D391D3A8329833FEFF6
:1032D000231A330AF83009F0B2CF4C814F5F4C8388
:1032E000C80CD91C8FEFA81AB80A463009F099CF3C
:1032F0002C960FB6F894DEBF0FBECDBFDF91CF91F5
:103300001F910F91FF90EF90DF90CF90BF90AF9003
:103310009F908F907F906F905F904F903F902F90F5
:103320000895CF92EF92FF920F931F93CF93DF9365
:10333000EC01262F6A3049F42C898E859F8538E070
:10334000239F800D911D112432C06D30A1F1EA88B8
:10335000FB88088919894E855F856C857D85CC88B9
:103360000E94B9182C89422F50E08C859D8536E04B
:10337000239F800D911D11249D878C872E892223E8
:10338000D1F06AEF64039001659F300D11246885C8
:103390007985260F371F281739076CF403E0440F8F
:1033A000551F0A95E1F78E859F85840F951F9F878E
:1033B0008E871D861C8681E090E0DF91CF911F9162
:1033C0000F91FF90EF90CF900895FC01758764876F
:1033D000578746870895611101C061E0FC01648B45
:1033E0000895FC01738B628B718B608B0895FC01D7
:1033F00085890895FC01808591850895FC01828569
:10340000938508958091700690E020917106821B4B
:10341000910908952091710680917006281750F443
:10342000E22FF0E0EE58F94F808190E02F5F20937B
:10343000710608958FEF9FEF0895E09171068091D6
:103440007006E81730F4F0E0EE58F94F808190E014
:1034500008958FEF9FEF08950895CF92DF92EF9236
:10346000FF920F931F93CF93DF937C01CB018A01CF
:1034700020914C06222389F0EB016B01C40ED51E6E
:10348000CC15DD0569F06991D701ED91FC910190B2
:10349000F081E02DC7010995F3CF642F0E948E1BA8
:1034A000C801DF91CF911F910F91FF90EF90DF90B6
:1034B000CF900895CF93DF931F92CDB7DEB7698386
:1034C00020914C062223D1F020914D06203240F06D
:1034D00021E030E0FC013383228380E090E015C0DE
:1034E00080914E06E82FF0E0E15BF94F99819083DF
:1034F0008F5F80934E0680934D0605C061E0CE013C
:1035000001960E948E1B81E090E00F90DF91CF9199
:103510000895FC011382128248EE53E060E070E0EF
:10352000448355836683778385E595E09183808323
:103530000895109271061092700610924E06109225
:103540004D060C94D91A862F413208F040E262E70A
:1035500076E00E94F71A1092710680937006089523
:1035600021E00C94A31A81E080934C0660936F06CF
:1035700010924E0610924D0608950C94B31A0F93B4
:10358000062F21E040914D066FE476E080916F06B2
:103590000E943B1B10924E0610924D0610924C0654
:1035A0000F91089561E00C94BF1A80E496E00C94AA
:1035B000891A1092FF0681E08093FD061092FC06A6
:1035C00061E082E10E94F91E61E083E10E94F91E40
:1035D000E9EBF0E080818E7F808380818D7F808326
:1035E00088E48093B80085E48093BC00089541325C
:1035F00008F03FC09091FF069111FCCF91E09093AD
:10360000FF062093FD062FEF209392061092D70617
:10361000240F2093D6069093FE069091FE06880F05
:10362000892B8093FE068091FC06813041F4109234
:10363000FC068091FE068093BB0085EC01C085EE00
:103640008093BC008091FF068130E1F38091D70622
:10365000841710F44091D70628ED36E0FB01D9011C
:103660008A2F821B841718F48D918193F9CF842FB0
:10367000089580E008950F93413208F046C090917C
:10368000FF069111FCCF92E09093FF060093FD0698
:103690009FEF909392061092D7064093D606FB01B7
:1036A00068ED76E0DB019A2F961B941718F4919140
:1036B0009D93F9CF1092FE069091FE06880F892BFC
:1036C0008093FE068091FC06813041F41092FC0646
:1036D0008091FE068093BB0085EC01C085EE80934F
:1036E000BC00222321F08091FF068230E1F380911B
:1036F00092068F3F61F080919206803251F0809166
:103700009206803341F483E007C081E005C080E089
:1037100003C082E001C084E00F910895613298F403
:103720002091FF06243089F46093B406FC0186EBF7
:1037300096E0DC012A2F281B261718F421912D93DF
:10374000F9CF80E0089581E0089582E0089585ED45
:103750008093BC008091BC0084FDFCCF1092FF06DA
:10376000089585EC8093BC001092FF0608951F9287
:103770000F920FB60F9211242F933F934F935F93A5
:103780006F937F938F939F93AF93BF93EF93FF9329
:103790008091B900887F803609F49CC068F5883232
:1037A00009F45BC090F4803109F454C038F48823E4
:1037B00009F4F5C0883009F44DC0F5C0883109F42A
:1037C0004CC0803209F45DC0EEC0803409F468C09A
:1037D00048F4803309F455C0883309F0E4C080937D
:1037E0009206A8C0803509F44FC0883509F45DC041
:1037F000883409F0D8C0D5C0883909F4C6C0A8F407
:10380000883709F467C038F4883609F463C0803714
:1038100009F460C0C8C0883809F4B7C0803909F419
:103820005FC0803809F0BFC05BC0803B09F485C031
:1038300038F4803A09F466C0883A09F47EC0B3C00F
:10384000803C09F4A6C0883C09F4A3C0883B09F475
:1038500089C0A9C08091FE0610C09091D7068091C2
:10386000D606981770F5E091D70681E08E0F809309
:10387000D706F0E0E852F94F80818093BB0085ECD9
:1038800085C0809392068DC0E091D70681E08E0FAF
:103890008093D7068091BB00F0E0E852F94F808317
:1038A0009091D7068091D6066DC0E091D70681E051
:1038B0008E0F8093D7068091BB00F0E0E852F94F5D
:1038C00080838091FD0681116CC081E08093FC06AD
:1038D00084EA60C083E08093FF0610929306CFCF06
:1038E00080919306803208F050C0E091930681E009
:1038F0008E0F809393068091BB00F0E0EC56F94F59
:103900008083BDCF80919306803230F4E09193069E
:10391000F0E0EC56F94F10820E94A71B60919306CD
:1039200070E0E091F806F091F90684E996E00995D7
:10393000109293060E94B11B36C084E08093FF066C
:103940001092B5061092B406E091FA06F091FB06CB
:1039500009958091B406811105C081E08093B40679
:103960001092B606E091B50681E08E0F8093B50601
:10397000F0E0EA54F94F80818093BB009091B50646
:103980008091B406981708F47ACF85E88093BC003C
:103990000AC085EC8093BC001092FF0604C0109210
:1039A00092060E94A71BFF91EF91BF91AF919F914B
:1039B0008F917F916F915F914F913F912F910F90D8
:1039C0000FBE0F901F9018958230E8F4E82FF0E0BA
:1039D000EE0FFF1FE050F94F71836083813041F09B
:1039E000809169008C7F842B80936900E89A089508
:1039F00080916900440F551F440F551F837F842B0E
:103A000080936900E99A08951F920F920FB60F9262
:103A100011242F933F934F935F936F937F938F93D3
:103A20009F93AF93BF93EF93FF9380910007909183
:103A30000107892B29F0E0910007F0910107099512
:103A4000FF91EF91BF91AF919F918F917F916F9176
:103A50005F914F913F912F910F900FBE0F901F904C
:103A600018951F920F920FB60F9211242F933F9328
:103A70004F935F936F937F938F939F93AF93BF9376
:103A8000EF93FF938091020790910307892B29F010
:103A9000E0910207F09103070995FF91EF91BF9123
:103AA000AF919F918F917F916F915F914F913F91D6
:103AB0002F910F900FBE0F901F9018951F920F928D
:103AC0000FB60F9211242F933F938F939F93AF9331
:103AD000BF938091050790910607A0910707B091C9
:103AE00008073091040723E0230F2D3720F40196B7
:103AF000A11DB11D05C026E8230F0296A11DB11D11
:103B0000209304078093050790930607A093070767
:103B1000B09308078091090790910A07A0910B07BD
:103B2000B0910C070196A11DB11D809309079093D8
:103B30000A07A0930B07B0930C07BF91AF919F9119
:103B40008F913F912F910F900FBE0F901F9018955E
:103B50003FB7F8948091090790910A07A0910B074D
:103B6000B0910C0726B5A89B05C02F3F19F0019610
:103B7000A11DB11D3FBF6627782F892F9A2F620F95
:103B8000711D811D911D42E0660F771F881F991FCF
:103B90004A95D1F70895CF92DF92EF92FF92CF939B
:103BA000DF936B017C010E94A81DEB01C114D104BD
:103BB000E104F10489F00E942B240E94A81D6C1BD3
:103BC0007D0B683E734090F381E0C81AD108E1088C
:103BD000F108C851DC4FEACFDF91CF91FF90EF9011
:103BE000DF90CF900895019739F0880F991F880FC3
:103BF000991F02970197F1F70895789484B5826030
:103C000084BD84B5816084BD85B5826085BD85B580
:103C1000816085BDEEE6F0E0808181608083E1E82F
:103C2000F0E0108280818260808380818160808367
:103C3000E0E8F0E0808181608083E1EBF0E080816A
:103C400084608083E0EBF0E0808181608083EAE73C
:103C5000F0E08081846080838081826080838081C5
:103C6000816080838081806880831092C100089584
:103C70001F93CF93DF93182FEB0161E00E94C01ECA
:103C8000209711F460E004C0CF3FD10539F461E022
:103C9000812FDF91CF911F910C94F91EE12FF0E05D
:103CA000E95BF54FE491E330F9F048F4E130B9F025
:103CB000E230A1F584B5806284BDC8BD34C0E73070
:103CC000E9F0E83019F1E43049F580918000806234
:103CD00080938000D0938B00C0938A0024C084B569
:103CE000806884BDC7BD1FC08091800080688093BC
:103CF0008000D0938900C093880015C08091B000E7
:103D000080688093B000C093B3000DC08091B00074
:103D100080628093B000C093B40005C0C038D10564
:103D20000CF0B5CFAFCFDF91CF911F9108958330C5
:103D300081F028F4813099F08230A1F00895873025
:103D4000A9F08830B9F08430D1F4809180008F7D63
:103D500003C0809180008F7780938000089584B5A0
:103D60008F7702C084B58F7D84BD08958091B000A7
:103D70008F7703C08091B0008F7D8093B00008954D
:103D8000CF93DF9390E0FC01E55AF54F2491FC01BD
:103D9000E159F54F8491882349F190E0880F991FEC
:103DA000FC01E956F54FA591B4918357954FFC015D
:103DB000C591D4919FB7611108C0F8948C9120955A
:103DC00082238C93888182230AC0623051F4F89454
:103DD0008C91322F309583238C938881822B88831A
:103DE00004C0F8948C91822B8C939FBFDF91CF916C
:103DF00008950F931F93CF93DF931F92CDB7DEB734
:103E0000282F30E0F901E95BF54F8491F901E55A7B
:103E1000F54F1491F901E159F54F04910023C9F0D0
:103E2000882321F069830E94971E6981E02FF0E0CA
:103E3000EE0FFF1FE357F54FA591B4919FB7F8948C
:103E40008C91611103C01095812301C0812B8C934B
:103E50009FBF0F90DF91CF911F910F910895CF9247
:103E6000DF92EF92FF920F931F93CF93DF9390E037
:103E7000FC01E55AF54FD491FC01E159F54F7491DD
:103E8000611102C0C0E001C0CD2FDA01C901BF70CD
:103E9000672F70E0660F771F6D57754F00E010E0D9
:103EA0009801FB01E590F490F70140814D234C13FC
:103EB0001EC0680179014FEFC41AD40AE40AF40A5B
:103EC000081719072A073B0709F442C09701860122
:103ED000E8CF68017901FFEFCF1ADF0AEF0AFF0A86
:103EE000081719072A073B0799F197018601FB017B
:103EF000E590F490F70140814D234C13EACF801BED
:103F0000910BA20BB30B20E030E0A901FB01E5907F
:103F1000F490F701F080FD22FC120AC0281739073F
:103F20004A075B07A9F02F5F3F4F4F4F5F4FEECF20
:103F3000A8E1B0E00E949827605F7F4F8F4F9F4FAE
:103F400024E096958795779567952A95D1F703C0D4
:103F500060E070E0CB01DF91CF911F910F91FF9056
:103F6000EF90DF90CF9008950E94CC27FC01818DC7
:103F7000228D90E0805C9F4F821B91098F7399275F
:103F80000895FC01918D828D981731F0828DE80F94
:103F9000F11D858D90E008958FEF9FEF0895FC014E
:103FA000918D828D981761F0828DDF01A80FB11D70
:103FB0005D968C91928D9F5F9F73928F90E0089594
:103FC0008FEF9FEF089583E591E2892B49F080E020
:103FD00090E0892B29F00E94532181110C9400005C
:103FE0000895FC01848DDF01A80FB11DA35ABF4FB6
:103FF0002C91848D90E001968F739927848FA689E8
:10400000B7892C93A089B1898C9180648C93938D0E
:10401000848D981306C00288F389E02D80818F7DFE
:1040200080830895CF93DF93EC01888D8823C9F0B6
:10403000EA89FB89808185FD05C0A889B9898C91B1
:1040400086FD0FC00FB607FCF5CF808185FFF2CF4C
:10405000A889B9898C9185FFEDCFCE010E94F11F0F
:10406000E7CFDF91CF910895CF92DF92FF920F9328
:104070001F93CF93DF931F92CDB7DEB76C01DC01A6
:104080005B969C915B975C968C915C97981307C0AC
:104090005096ED91FC915197808185FD32C0F601DB
:1040A000038D10E00F5F1F4F0F731127F02EF601E5
:1040B000848DF81211C00FB607FCF9CFD6015096C7
:1040C000ED91FC915197808185FFF1CFC601698305
:1040D0000E94F11F6981EBCF838DE80FF11DE35A38
:1040E000FF4F6083D6015B960C935B975296ED91E0
:1040F000FC91539780818062808381E058968C93F5
:104100000DC0D6015696ED91FC915797608350965D
:10411000ED91FC91519780818064808381E090E0F3
:104120000F90DF91CF911F910F91FF90DF90CF9073
:104130000895BF92CF92DF92EF92FF92CF93DF93D9
:10414000EC016A017B01B22EE889F98982E0808363
:10415000411581EE580761057105A1F060E079E035
:104160008DE390E0A70196010E9457272150310965
:10417000410951095695479537952795211580E1B5
:10418000380798F0E889F989108260E874E88EE1D0
:1041900090E0A70196010E9457272150310941095B
:1041A00051095695479537952795EC85FD853083C0
:1041B000EE85FF852083188EEC89FD89B082EA891F
:1041C000FB89808180618083EA89FB8980818860A6
:1041D0008083EA89FB89808180688083EA89FB8902
:1041E00080818F7D8083DF91CF91FF90EF90DF9072
:1041F000CF90BF9008951F920F920FB60F92112487
:104200002F938F939F93EF93FF93E0911D07F0916E
:104210001E078081E0912307F091240782FD12C0E0
:104220009081809126078F5F8F73209127078217D7
:1042300051F0E0912607F0E0E35FF84F958F80930F
:10424000260701C08081FF91EF919F918F912F915F
:104250000F900FBE0F901F9018951F920F920FB6E0
:104260000F9211242F933F934F935F936F937F93FC
:104270008F939F93AF93BF93EF93FF938DE097E05E
:104280000E94F11FFF91EF91BF91AF919F918F918C
:104290007F916F915F914F913F912F910F900FBE42
:1042A0000F901F9018958DE097E00E94B61F21E0B7
:1042B000892B09F420E0822F0895109210071092A4
:1042C0000F0788EE93E0A0E0B0E080931107909391
:1042D0001207A0931307B093140785E695E0909317
:1042E0000E0780930D0785EC90E090931A0780935A
:1042F000190784EC90E090931C0780931B0780ECD7
:1043000090E090931E0780931D0781EC90E09093BE
:10431000200780931F0782EC90E090932207809300
:10432000210786EC90E09093240780932307109256
:104330002607109227071092280710922907089540
:1043400008950E94FD1D0E94A0210E94E310C3EE6B
:10435000DFE10E9400132097E1F30E94E31FF9CFF1
:10436000CF92DF92EF92FF920F931F93CF93DF9341
:104370006C017A01EB01E60EF71E00E010E0CE15AD
:10438000DF0561F06991D601ED91FC910190F0811A
:10439000E02DC6010995080F191FF1CFC801DF9163
:1043A000CF911F910F91FF90EF90DF90CF900895E4
:1043B0006115710581F0DB010D900020E9F7AD0179
:1043C00041505109461B570BDC01ED91FC910280D5
:1043D000F381E02D099480E090E00895EF92FF9240
:1043E0000F931F93CF93DF938C01FB01C0E0D0E0CC
:1043F00064917F018FEFE81AF80A662361F0D80113
:10440000ED91FC910190F081E02DC8010995C80F54
:10441000D91FF701EDCFCE01DF91CF911F910F9101
:10442000FF90EF9008950C94D821DC01ED91FC9160
:104430000190F081E02D09940F931F93CF93DF93A8
:10444000EC016DE00E9415228C016AE0CE010E9411
:104450001522800F911FDF91CF911F910F91089529
:104460008F929F92AF92BF92CF92DF92EF92FF9284
:104470000F931F93CF93DF93CDB7DEB7A1970FB6FE
:10448000F894DEBF0FBECDBF7C01C42EE52FCB015B
:10449000D22E19A221E02D1510F02AE0D22E8E0185
:1044A0000F5D1F4F8D2C912CA12CB12C6C2D7E2FCC
:1044B000A50194010E9457278C2DD29E80191124AA
:1044C000015011098A3014F4805D01C0895CF80143
:1044D0008083211531054105510521F0C22EE32FBE
:1044E000CA01E4CFB801C7010E94D821A1960FB636
:1044F000F894DEBF0FBECDBFDF91CF911F910F911A
:10450000FF90EF90DF90CF90BF90AF909F908F90F3
:104510000895CF92DF92EF92FF920F931F93CF9364
:10452000DF93EC016A017B012115310579F4E88103
:10453000F9810190F081E02D642FDF91CF911F91DF
:104540000F91FF90EF90DF90CF9009942A303105C2
:10455000E9F477FF1AC06DE20E9415228C0144270E
:104560005527BA014C195D096E097F092AE0CE0171
:104570000E943022800F911FDF91CF911F910F91E8
:10458000FF90EF90DF90CF9008952AE0B701A60149
:10459000CE01DF91CF911F910F91FF90EF90DF90AF
:1045A000CF900C9430222115310541F4DC01ED91BE
:1045B000FC910190F081E02D642F09940C9430223D
:1045C0000F931F93CF93DF93EC019A01462F50E096
:1045D00060E070E00E94D3228C01CE010E941C2278
:1045E000800F911FDF91CF911F910F9108954F92EE
:1045F0005F926F927F928F929F92AF92BF92CF9273
:10460000DF92EF92FF920F931F93CF93DF93EC0112
:104610006A017B01B22E9A01AB01C701B6010E946B
:104620001A27882319F061E775E027C026013701B2
:10463000E89477F82FEF3FEF4FE75FE7C301B20150
:104640000E941A2781110DC02FEF3FEF4FE75FE760
:10465000C301B2010E94F32418161CF465E775E04B
:104660000CC02FEF3FEF4FE75FE4C701B6010E9498
:1046700067261816ACF469E775E0CE01DF91CF919B
:104680001F910F91FF90EF90DF90CF90BF90AF9070
:104690009F908F907F906F905F904F900C94D82157
:1046A0002FEF3FEF4FE75FECC701B6010E94F32405
:1046B00087FDE1CF20E030E0A901C701B6010E94EB
:1046C000F32487FF0AC06DE2CE010E9415228C01FF
:1046D000F7FAF094F7F8F09402C000E010E0A12C93
:1046E00060E070E080E09FE3AB1441F020E030E058
:1046F00040E251E40E94F724A394F6CF9B01AC0161
:10470000C701B6010E942D246B017C010E94642523
:104710002B013C010E9490259B01AC01C701B60111
:104720000E942C246B017C012AE0B301A201CE017E
:104730000E943022080F191FBB2039F06DE775E089
:10474000CE010E94D821080F191F7B2C772041F140
:1047500020E030E040E251E4C701B6010E94722639
:104760006B017C010E945F254B01AA2497FCA09459
:10477000BA2C2AE030E0B501A401CE010E948922C2
:10478000080F191FC501B4010E9492259B01AC01BD
:10479000C701B6010E942C246B017C017A94D6CF0C
:1047A000C801DF91CF911F910F91FF90EF90DF90A3
:1047B000CF90BF90AF909F908F907F906F905F90C1
:1047C0004F9008950C94F7224F925F926F927F92D0
:1047D000AF92BF92CF92DF92EF92FF920F931F930F
:1047E000CF93DF93CDB7DEB729013A01621B730B7C
:1047F000840B950B29893A894B895C892A193B09D5
:104800004C095D09298B3A8B4B8B5C8B9B01AC016E
:1048100069897A898B899C890E943327E418F50875
:1048200006091709A80197010E9479272A0D3B1D47
:104830004C1D5D1DCA01B901DF91CF911F910F91F0
:10484000FF90EF90DF90CF90BF90AF907F906F90F0
:104850005F904F90089508955058BB27AA270ED017
:10486000FCC1EDD130F0F2D120F031F49F3F11F4D2
:104870001EF4BDC10EF4E095E7FBB3C1E92FFED1F4
:1048800080F3BA17620773078407950718F071F46D
:104890009EF516C20EF4E0950B2EBA2FA02D0B013B
:1048A000B90190010C01CA01A0011124FF27591B75
:1048B00099F0593F50F4503E68F11A16F040A22F7B
:1048C000232F342F4427585FF3CF469537952795EC
:1048D000A795F0405395C9F77EF41F16BA0B620BEB
:1048E000730B840BBAF09150A1F0FF0FBB1F661F32
:1048F000771F881FC2F70EC0BA0F621F731F841F75
:1049000048F4879577956795B795F7959E3F08F09A
:10491000B3CF9395880F08F09927EE0F9795879559
:1049200008958DD158F080E891E009F49EEF8ED182
:1049300028F040E851E059F45EEF09C058C1C0C109
:10494000E92FE0789BD168F3092E052AC1F32617D9
:1049500037074807590738F00E2E07F8E02569F0A9
:10496000E025E0640AC0EF6307F8009407FADB0172
:10497000B9019D01DC01CA01AD01EF9347D06DD1B2
:104980000AD05F91552331F02BED3FE049E450FD13
:1049900049EC63CF0895DF93DD27B92FBF7740E857
:1049A0005FE31616170648075B0710F4D92F93D15B
:1049B0009F938F937F936F933AD2E8E6F0E01AD1FA
:1049C0004CD12F913F914F915F9198D1DD2349F0C8
:1049D0009058A2EA2AED3FE049EC5FE3D0785D27EA
:1049E0004DDFDF913AC1D9D008F481E008950CD0B1
:1049F00034C12CD140F023D130F021F45F3F19F0C5
:104A0000F0C051115EC1F3C039D198F39923C9F3B5
:104A10005523B1F3951B550BBB27AA2762177307C4
:104A2000840738F09F5F5F4F220F331F441FAA1F78
:104A3000A9F333D00E2E3AF0E0E830D09150504038
:104A4000E695001CCAF729D0FE2F27D0660F771FE6
:104A5000881FBB1F261737074807AB07B0E809F0C8
:104A6000BB0B802DBF01FF2793585F4F2AF09E3F5D
:104A7000510568F0B6C025C15F3FECF3983EDCF30A
:104A8000869577956795B795F7959F5FC9F7880FD6
:104A9000911D9695879597F90895E1E0660F771F28
:104AA000881FBB1F621773078407BA0720F0621BB9
:104AB000730B840BBA0BEE1F88F7E095089504D0B2
:104AC0006894B111FEC00895E1D088F09F5790F02E
:104AD000B92F9927B751A0F0D1F0660F771F881F23
:104AE000991F1AF0BA95C9F712C0B13081F0E8D019
:104AF000B1E00895E5C0672F782F8827B85F39F0B7
:104B0000B93FCCF3869577956795B395D9F73EF481
:104B100090958095709561957F4F8F4F9F4F089529
:104B2000E89409C097FB3EF4909580957095619547
:104B30007F4F8F4F9F4F9923A9F0F92F96E9BB27FD
:104B40009395F695879577956795B795F111F8CF79
:104B5000FAF4BB0F11F460FF1BC06F5F7F4F8F4FE4
:104B60009F4F16C0882311F096E911C0772321F0DA
:104B70009EE8872F762F05C0662371F096E8862F72
:104B800070E060E02AF09A95660F771F881FDAF7C9
:104B9000880F9695879597F90895990F0008550FF6
:104BA000AA0BE0E8FEEF16161706E807F907C0F0B3
:104BB00012161306E407F50798F0621B730B840BBB
:104BC000950B39F40A2661F0232B242B252B21F495
:104BD00008950A2609F4A140A6958FEF811D811D35
:104BE000089597F99F6780E870E060E008959FEF6F
:104BF00080EC0895DF93CF931F930F93FF92EF9272
:104C0000DF927B018C01689405C0DA2EEF0176D02B
:104C1000FE01E894A5912591359145915591AEF30A
:104C2000EF012CDEFE019701A801DA9479F7DF90FD
:104C3000EF90FF900F911F91CF91DF910895002485
:104C40000A941616170618060906089500240A94F1
:104C500012161306140605060895092E0394000C77
:104C600011F4882352F0BB0F40F4BF2B11F460FF06
:104C700004C06F5F7F4F8F4F9F4F089557FD90582F
:104C8000440F551F59F05F3F71F04795880F97FB10
:104C9000991F61F09F3F79F08795089512161306CA
:104CA0001406551FF2CF4695F1DF08C016161706F9
:104CB0001806991FF1CF869571056105089408952E
:104CC000E894BB2766277727CB0197F9089565DF1E
:104CD00008F48FEF08959B01AC0160E070E080E87C
:104CE0009FE385CE0BD0B9CFAADF28F0AFDF18F055
:104CF000952309F076CF7BCF1124E3CFBFDFA0F35C
:104D0000959FD1F3950F50E0551F629FF001729F60
:104D1000BB27F00DB11D639FAA27F00DB11DAA1F7F
:104D2000649F6627B00DA11D661F829F2227B00DCC
:104D3000A11D621F739FB00DA11D621F839FA00D57
:104D4000611D221F749F3327A00D611D231F849FA7
:104D5000600D211D822F762F6A2F11249F575040FE
:104D60008AF0E1F088234AF0EE0FFF1FBB1F661F99
:104D7000771F881F91505040A9F79E3F510570F052
:104D800030CF9FCF5F3FECF3983EDCF3869577956D
:104D90006795B795F795E7959F5FC1F7FE2B880F4D
:104DA000911D9695879597F9089511F40EF41FCFEC
:104DB00045C06CDFD0F39923D9F3CEF39F57550B41
:104DC00087FF4AD00024A0E640EA9001805856951B
:104DD000979528F4805C660F771F881F20F02617B0
:104DE0003707480730F4621B730B840B20293129E5
:104DF0004A2BA69517940794202531254A2758F762
:104E0000660F771F881F20F026173707480730F4F2
:104E1000620B730B840B200D311D411DA09581F792
:104E2000B901842F9158880F9695879508959B0115
:104E3000AC0158CFB2DE880B990B08959F3F31F03B
:104E4000915020F4879577956795B795880F911DB8
:104E50009695879597F9089591505040660F771F62
:104E6000881FD2F70895DB018F939F930E949827A4
:104E7000BF91AF91A29F800D911DA39F900DB29FF6
:104E8000900D1124089597FB072E16F4009407D077
:104E900077FD09D00E94A32707FC05D03EF490952A
:104EA00081959F4F0895709561957F4F0895A1E278
:104EB0001A2EAA1BBB1BFD010DC0AA1FBB1FEE1F94
:104EC000FF1FA217B307E407F50720F0A21BB30BDF
:104ED000E40BF50B661F771F881F991F1A9469F75B
:104EE00060957095809590959B01AC01BD01CF01B7
:104EF0000895052E97FB1EF400940E94902757FDFD
:104F000007D00E94572707FC03D04EF40C9490273B
:104F100050954095309521953F4F4F4F5F4F0895E5
:104F200090958095709561957F4F8F4F9F4F089515
:104F30000E94BD27A59F900DB49F900DA49F800D4A
:104F4000911D11240895AA1BBB1B51E107C0AA1F84
:104F5000BB1FA617B70710F0A61BB70B881F991F1A
:104F60005A95A9F780959095BC01CD010895EE0F53
:104F7000FF1F0590F491E02D0994A29FB001B39F0B
:104F8000C001A39F700D811D1124911DB29F700D52
:104F9000811D1124911D089581E090E0F8940C94F6
:104FA000D429662777270C94172840E855E00E94FB
:104FB000DA270895FA01A191B081009719F41097AA
:104FC000E1F0CD01DC01CD010D90002011F4C00114
:104FD00013C0FB012191222319F02015D9F7F3CF3B
:104FE000FB012191201519F41E92119606C022236F
:104FF000C1F70D900020A1F7D001FA01A193B08371
:105000000895F999FECF92BD81BDF89A992780B590
:105010000895262FF999FECF1FBA92BD81BD20BDFC
:105020000FB6F894FA9AF99A0FBE01960895A0E087
:10503000B0E0EDE1F8E20C94A3298B016115710554
:1050400021F0DB018C9311969C93EC015E01BFEF84
:10505000AB1ABB0A7501C8808C2D90E00E947A299A
:10506000892B11F0E501F2CFEDE2CE1208C07E01EE
:10507000F2E0EF0EF11CC980DD24D39409C02BE2CD
:10508000C21205C07E0142E0E40EF11CC980D12CA1
:10509000E701219743E050E069EA7AE0CE010E94FF
:1050A0008229892BC1F4239645E050E064EA7AE036
:1050B000CE010E948229892B09F42596011511053C
:1050C00019F0D801CD93DC93D11006C160E070E0F7
:1050D00080E89FE70AC143E050E061EA7AE0CE0150
:1050E0000E948229892B59F40115110509F4F9C090
:1050F000B2E0EB0EF11CF801F182E082F2C0F701A0
:1051000060E070E0CB01C0E0D0E07F01A0EDAA2E0E
:10511000AC0C29E02A1530F14D2D4260B42E2D2D16
:105120002870D2FE04C0211125C0219623C0211170
:105130002197A5E0B0E09B01AC010E949827660F83
:10514000771F881F991F6A0D711D811D911D683978
:10515000A9E97A078A07A9E19A0760F0BD2DB66030
:10516000BB2E08C02EEFA2120AC0D3FC50C04D2D9A
:105170004860B42E3196D701CC90DB2CC6CF2C2DB5
:105180002F7D253409F043C0A081AD3241F4BD2DFF
:10519000B061DB2E7F0122E0E20EF11C0CC07F012A
:1051A000AB3231F04FEFE41AF40A21E030E006C0F0
:1051B000A2E0EA0EF11CA18122E030E0A053AA3067
:1051C00018F0E21AF30A23C0F70120E030E020389B
:1051D000BCE03B075CF4A901440F551F440F551F69
:1051E000240F351F220F331F2A0F311DAF014F5FD0
:1051F0005F4F7A01A081A053AA3010F4FA01E7CFE3
:10520000D4FE03C0319521953109C20FD31FD1FEC1
:1052100009C00115110531F0E1E0EE1AF108D801DD
:10522000ED92FC920E9490252D2D2370233019F0D1
:105230004B015C0106C04B015C01B7FAB094B7F8B2
:10524000B09420E030E0A901C501B4010E94F3242C
:10525000882309F43EC0D7FF06C0D195C195D10976
:1052600000EC1AE002C008ED1AE06801B8E1CB1AC0
:10527000D10890E2E92EF12CCE15DF0574F0F8018B
:105280002591359145915491C501B4010E94722632
:105290004B015C01CE19DF09EFCF04501109F594E1
:1052A000E7940C151D0541F78A2D880F8B2D881F5B
:1052B0008F3F49F020E030E0A901C501B4010E9410
:1052C000F324811106C082E290E09093AB078093B3
:1052D000AA07C501B40109C060E070E080E89FEF53
:1052E00004C060E070E080EC9FE7CDB7DEB7ECE093
:1052F0000C94BF2991111EC0803219F0895085503D
:10530000D0F70895FB01DC014150504088F08D91A9
:1053100081341CF08B350CF4805E659161341CF097
:105320006B350CF4605E861B611171F3990B089567
:10533000881BFCCF9927882708952F923F924F9280
:105340005F926F927F928F929F92AF92BF92CF9215
:10535000DF92EF92FF920F931F93CF93DF93CDB71E
:10536000DEB7CA1BDB0B0FB6F894DEBF0FBECDBF96
:1053700009942A88398848885F846E847D848C8467
:105380009B84AA84B984C884DF80EE80FD800C8170
:105390001B81AA81B981CE0FD11D0FB6F894DEBF53
:0C53A0000FBECDBFED010895F894FFCFC3
:1053AC0001000000000000000000000000000000F0
:1053BC0000000000000000000000000000000000E1
:1053CC0000000000000000000000000000000000D1
:1053DC0000000000000000000000000000000000C1
:1053EC000000008080800000000000000000000031
:1053FC0000000000008080C0C00000000000000021
:10540C000000000000000000000000000000000090
:10541C000000000000000000000000000000000080
:10542C000000000000000000000000000000000070
:10543C00000000000000000080C0E0F0F8FCF8E084
:10544C000000000000000000000000000000000050
:10545C000080808080800080800000000080808040
:10546C00808000FFFFFF0000000080808080000033
:10547C008080000080FFFF80800080800080808022
:10548C00800080800000000000808000008C8E84F2
:10549C00000080F8F8F88000000000000000000018
:1054AC0000000000F0F0F0F0F0F0F0F0F0F0F0F0B0
:1054BC00E0E0C08000E0FCFEFFFFFF7FFFFFFFFF8E
:1054CC00FF0000000000000000000000000000FED3
:1054DC00FFC70101010183FFFF00007CFEC7010132
:1054EC00010183FFFFFF0038FEC78301010183C761
:1054FC00FFFF000001FFFF010100FFFF0701010199
:10550C0000007FFF80000000FFFF7F0000FFFFFF17
:10551C00000001FFFFFF0100000000000000000080
:10552C0000000000030F3F7F7FFFFFFFFFFFFFFF27
:10553C00E7C7C78F8F9FBFFFFFC3C0F0FFFFFFFF01
:10554C00FFFCFCFCFCFCFCFCFCF8F8F0F0E0C00000
:10555C000103030303030103030000000001030321
:10556C000303010103010000000103030303010114
:10557C00030300000003030000000303000000000D
:10558C0000000001030303030301000000010301F9
:10559C0000000003030100000000000000000000F8
:1055AC000000000000000080C0E0F0F9FFFFFFFFEA
:1055BC00FF3F1F0F87C7F7FFFF1F1F3DFCF8F8F8D1
:1055CC00F87C7DFFFFFFFFFFFFFFFF7F3F0F070012
:1055DC00303000000000000000000000000000005F
:1055EC000000000000000000FEFEFC0000000000B7
:1055FC00000000000000000000000000000000009F
:10560C0000E0C0000000000000000000000030308E
:10561C00000000000000000000000000000000007E
:10562C000000000000C0FEFFFFFFFFFFFFFFFFFFB9
:10563C007F7F3F1F0F071F7FFFFFF8F8FFFFFFFF64
:10564C00FFFEF8E000000001000000000000000078
:10565C00FEFE000000FCFEFC0C06060EFCF8000032
:10566C00F0F81C0E0606060CFFFFFF0000FEFE0005
:10567C00000000FCFEFC00183C7E66E6CE840000B8
:10568C0006FFFF0606FCFEFC0C0606060000FEFEEE
:10569C000000C0F8FC4E4646464E7C7840183C76DE
:1056AC00E6CECC80000000000000000000000000EE
:1056BC00000000000000000001070F1F1F3F3F3FCC
:1056CC003F1F0F030000000000000000000000005E
:1056DC000F0F0000000F0F0F000000000F0F000055
:1056EC0003070E0C18180C060F0F0F0000010F0EFD
:1056FC000C180C0F070100040E0C180C0F070000FF
:10570C00000F0F00000F0F0F0000000000000F0F24
:10571C0000000007070C0C181C0C060600040E0CED
:10572C00180C0F0700000000000000000000000033
:10573C00000000000000000000000000000000005D
:10574C00000000000000000000000000000000004D
:10575C00000000000000000000000000000000003D
:10576C00000000000000000000000000000000002D
:10577C00000000000000000000000000000000001D
:10578C00000000000000000000000000000000000D
:10579C0000000000000000000000000000000000FD
:1057AC00000000002C003B002D53455454494E473B
:1057BC002D00444F4E4521004E414E4F0030000A03
:1057CC0000000000009119B021CD137F1685179CA5
:1057DC00173617B217E7170518000000009119B01B
:1057EC0021B41F7F1685179C173617B217E71705BC
:1057FC0018000000005A1A2D1A021A0A1A1D1A2C27
:10580C001A000000003420B021B61FCF1FC11F1298
:10581C00206E616E00696E66006F7666002E000069
:00000001FF
